:020000040800F2
:1000000000000220AD020008B5020008B902000895
:1000100001030008050300084D030008000000006C
:10002000000000000000000000000000291E000881
:100030009903000800000000B91E000811370008ED
:100040005D1800085D1800085D1800085D180008BC
:100050005D1800085D1800085D1800085D180008AC
:100060005D1800085D1800085D1800085D1800089C
:100070005D1800085D1800085D1800085D1800088C
:100080005D1800085D1800085D18000800000000F9
:100090000000000000000000000000005D180008E3
:1000A0005D1800085D1800085D1800085D1800085C
:1000B0005D1800085D1800085D1800085D1800084C
:1000C0005D1800085D1800085D1800085D1800083C
:1000D0005D1800085D1800085D18000800000000A9
:1000E0005D1800085D1800085D1800080000000099
:1000F0000000000000000000000000005D18000883
:10010000000000005D1800085D1800085D18000878
:1001100000000000000000000000000000000000DF
:100120005D1800085D1800085D1800085D180008DB
:100130005D18000800000000000000000000000042
:100140000000000000000000000000005D18000832
:100150005D1800085D1800085D1800085D180008AB
:100160005D1800085D180008000000000000000095
:10017000000000000000000000000000000000007F
:10018000000000005D1800080000000000000000F2
:100190005D1800085D18000800B583B001F0D4FABE
:1001A000304B314A1360314A1360314B314A03E01E
:1001B00011681960043304322F498B42F8D32A4B5B
:1001C0001A682E4B9A4204D1284B1A682C4B9A423B
:1001D00000D0FEE7234B2B4A13602B4A13602B4BB6
:1001E00002E000221A600433294A9342F9D3254BD6
:1001F0001B6813B9244B1B6803B1FEE701F0B2FA88
:1002000001A8694601F07AFA224B234DED1AAD1090
:10021000002404E01F4B53F8243098470134A542D2
:10022000F8DC1E4B1E4DED1AAD10002404E01B4BF4
:1002300053F8243098470134A542F8DC019800991E
:1002400003F062F90546174B174CE41AA41004E0BA
:10025000013C144B53F824309847002CF8DC284616
:1002600001F028FABABADECA000000207C000020A3
:100270000000002028420008800000207856341238
:100280003254769880000020443F002080000020F7
:10029000483F0020D8030008D8030008D80300080E
:1002A000D8030008D8030008D803000808B5FFF7F2
:1002B00073FF00BF00BEFEE71EF0040F0CBFEFF39C
:1002C0000880EFF309807146364A10472DE9F04166
:1002D00082B007468846084C666BA56BA46A07483F
:1002E00001F014FACDF800803846214632462B46FC
:1002F00001F03CFA00BEFEE700ED00E0044100081A
:1003000000BEFEE71EF0040F0CBFEFF30880EFF312
:1003100009807146244A10472DE9F04182B0074612
:100320008846084C666BA56BA46A074801F0EEF995
:10033000CDF800803846214632462B4601F016FAA9
:1003400000BEFEE700ED00E0144100081EF0040FBF
:100350000CBFEFF30880EFF309807146134A104792
:100360002DE9F04182B007468846084C666BA56BC4
:10037000A46A074801F0CAF9CDF800803846214642
:1003800032462B4601F0F2F900BEFEE700ED00E038
:100390002041000800BEFEE700BEFEE700BEFEE70B
:1003A00070470000CD02000819030008610300082F
:1003B0002842000800000020800000202842000899
:1003C000000000100000001080000020483F0020C6
:0803D000000000100000001005
:1003D80010B5044600F000FF064BA3FB002080097F
:1003E80000F0F6F94FF0FF302146002200F0BEF988
:1003F800002010BDD34D621008B50B4B1A6842F4AB
:1004080000721A601A6842F480621A601A6842F42C
:1004180080721A60032000F097F90020FFF7D8FFD8
:1004280003F0F4F8002008BD003C0240024B1A68B3
:1004380001321A60704700BF84000020014B186821
:10044800704700BF8400002010B44D4B5A6822F456
:1004580040325A60596842680A435A6003685A68C9
:1004680022F480725A6003685968026941EA0222DC
:100478005A6003685A6822F040725A6003685968E3
:1004880082680A435A6003689A6822F400629A6094
:1004980003689968C2680A439A60C36A394A9342F2
:1004A80014D003689A6822F070629A6003689968A9
:1004B800C26A0A439A6003689A6822F040529A60B6
:1004C80003689968026B0A439A6009E003689A68AE
:1004D80022F070629A6003689A6822F040529A602B
:1004E80003689A6822F002029A6003689968826930
:1004F80041EA42029A60436AC3B103685A6842F407
:1005080000625A6003685A6822F460425A600368BD
:100518005968826A013A4FF4604494FAA4F4B4FA30
:1005280084F4E4B2A2400A435A6004E003685A68BB
:1005380022F400625A600368DA6A22F47002DA620E
:100548000368D96A026A013A41EA0252DA62036828
:100558009A6822F400729A6003689968C26941EA4D
:1005680042229A6003689A6822F480629A6003685B
:100578009A68416942EA81229A605DF8044B7047A3
:10058800002301400100000F10B50446B8B190F8EF
:100598003D3013F0FF0F04D1002380F83C3003F006
:1005A80041F8022384F83D302046FFF74DFF002034
:1005B8002064012384F83D3084F83C0010BD0120FC
:1005C80010BD00BF30B482B00023019390F83C30D6
:1005D800012B00F0AC80012380F83C300B68092B1C
:1005E80016D90268D4689BB203EB43031E3B072568
:1005F80005FA03F324EA0303D3600368DD688C6813
:100608000A8802EB42021E3A94402C43DC6013E055
:10061800026814699BB203EB4303072505FA03F349
:1006280024EA0303136103681D698C680A8802EBD6
:10063800420294402C431C614B68062B16D8026872
:10064800546B03EB8303053B1F2505FA03F324EAE8
:100658000303536303685C6B0D884A6802EB8202EC
:10066800053A05FA02F222435A632EE00C2B16D8FB
:100678000268146B03EB8303233B1F2505FA03F37E
:1006880024EA0303136303681C6B0D884A6802EBB2
:100698008202233A05FA02F222431A6315E002683D
:1006A800D46A03EB8303413B1F2505FA03F324EACD
:1006B8000303D3620368DC6A0D884A6802EB82028E
:1006C800413A05FA02F22243DA6203681A4A93426F
:1006D80007D10B68122B04D1184B5A6842F48002D8
:1006E8005A600368144A93421CD10B68103B012BD3
:1006F80018D8124B5A6842F400025A600B68102B43
:1007080010D10F4B1A680F4BA3FB02139B0C03EB82
:1007180083035B00019302E0019B013B0193019B72
:10072800002BF9D1002380F83C30184600E0022065
:1007380002B030BC704700BF0020014000230140D8
:100748000C00002083DE1B4300F00700064AD36834
:1007580023F4E0631B041B0C43EA002343F0BF634C
:1007680043F40033D360704700ED00E030B4164B1B
:10077800DB68C3F30223C3F10705042D28BF042552
:100788001C1D062C01D9033B00E00023012404FAB8
:1007980005F5013D2940994004FA03F3013B1A404D
:1007A8000A43002806DA00F00F001201D2B2074B04
:1007B8001A5407E01201D2B200F1604000F561401E
:1007C80080F8002330BC704700ED00E014ED00E035
:1007D8000138B0F1807F0AD2064B5860F021064AF2
:1007E80082F823100020986007221A6070470120C1
:1007F800704700BF10E000E000ED00E0042805D1DC
:10080800054B1A6842F004021A607047024B1A68D6
:1008180022F004021A60704710E000E02DE9F001B0
:1008280083B00023C3E01E4601229A400C6814409E
:10083800944240F0BB804D68022D01D0122D14D196
:10084800DD08083550F8257003F0070C4FEA8C0CCA
:100858004FF00F0808FA0CF827EA08080F6907FA9A
:100868000CF747EA080740F8257007685D004FF065
:10087800030C0CFA05FC6FEA0C0C0CEA07084F682D
:1008880007F00307AF4047EA080707604F6807F11A
:10089800FF38B8F1010F03D9112F01D0122F11D150
:1008A80087680CEA0708CF68AF4047EA08078760FF
:1008B800476827EA02024F68C7F3001707FA06F6E7
:1008C80032434260C2680CEA020C8A68AA4042EAD3
:1008D8000C02C2604A6812F0805F67D0374A556CD4
:1008E80045F480455564526C02F480420192019AA5
:1008F8009A08961C324D55F8267003F00305AD0092
:100908000F26AE4027EA06062E4FB84219D007F543
:100918008067B84213D007F58067B8420DD007F555
:100928008067B84207D007F58067B84201D104272D
:1009380008E0052706E0032704E0022702E0012774
:1009480000E0002707FA05F5354302321C4E46F849
:1009580022501D4A1568E24302EA05064F6817F45B
:10096800803F01D044EA0506174D2E606D6802EA03
:1009780005064F6817F4003F01D044EA0506124DFA
:100988006E60AD6802EA05064F6817F4801F01D053
:1009980044EA05060C4DAE60ED682A404E6816F430
:1009A800001F01D044EA0502074CE26001330F2B17
:1009B8007FF639AF03B0BDE8F00170470038024058
:1009C8000038014000000240003C014003690B422E
:1009D80001D0012070470020704700BF436959408B
:1009E8004161704738B5044600287FD090F835300B
:1009F80013F0FF0F04D1002380F8343002F034FEE6
:100A0800022384F8353023681A6822F001021A603C
:100A180000F0FEFB364BA3FB00239B0C22685360BF
:100A280021686268334DAA4201D8013308E04FF4C7
:100A3800967202FB03F3304AA2FB03539B0901336E
:100A48000B62226863682B498B4208D85B00B0FBB5
:100A5800F3F0C0F30B03032B2DD804202BE0A1687F
:100A680051B903EB4305B0FBF5F5C5F30B05D5F11B
:100A7800010538BF00250BE003EB830505EB850571
:100A8800B0FBF5F5C5F30B05D5F1010538BF002519
:100A980085B931B903EB4303B0FBF3F040F40040F0
:100AA80009E003EB830303EB8303B0FBF3F040F4AB
:100AB800404000E00120D0612368E169226A0A43CE
:100AC8001A6023682169E2680A439A6023686169A9
:100AD800A2690A43DA6023681A6842F001021A60C0
:100AE8000020A063012384F8353038BD012038BDCB
:100AF80083DE1B43A0860100D34D621030B583B05E
:100B08000446036813F0010F55D0AA4B9B6803F005
:100B18000C03042B0AD0A74B9B6803F00C03082B8B
:100B28000DD1A44B5B6813F4800F08D0A14B1B6850
:100B380013F4003F3FD06368002B3CD19FE10022B3
:100B48009D4B1A70FFF77AFC054607E0FFF776FC25
:100B5800401B41F28833984200F29381954B1B6801
:100B680013F4003FF2D12279934B1A7063688BB16A
:100B7800FFF764FC054607E0FFF760FC401B41F205
:100B88008833984200F27F818A4B1B6813F4003F38
:100B9800F2D010E0FFF752FC054607E0FFF74EFCE5
:100BA800401B41F28833984200F26F81814B1B68E9
:100BB80013F4003FF2D1236813F0020F5CD07D4B91
:100BC8009B6813F00C0F0AD07A4B9B6803F00C0358
:100BD800082B1CD1774B5B6813F4800F17D1754B2A
:100BE8001B6813F0020F03D0E368012B40F04F811C
:100BF800704B196821F0F8012269F82090FAA0F0EA
:100C0800B0FA80F0C0B282400A431A6034E0E36868
:100C180003B30122694B1A60FFF710FC054605E093
:100C2800FFF70CFC401B642800F23381614B1B6802
:100C380013F0020FF4D05F4B196821F0F801226914
:100C4800F82090FAA0F0B0FA80F0C0B282400A43CF
:100C58001A6011E00022594B1A60FFF7EFFB0546B6
:100C680005E0FFF7EBFB401B642800F21481514BB1
:100C78001B6813F0020FF4D1236813F0080F26D075
:100C8800636993B101224E4B1A60FFF7D7FB054603
:100C980005E0FFF7D3FB401B642800F2FE80454BBC
:100CA8005B6F13F0020FF4D011E00022444B1A607E
:100CB800FFF7C4FB054605E0FFF7C0FB401B6428AF
:100CC80000F2ED803B4B5B6F13F0020FF4D1236809
:100CD80013F0040F59D0374B1A6C42F080521A6443
:100CE8001B6C03F080530193019B364B1A6842F446
:100CF80080721A60FFF7A2FB054605E0FFF79EFB2E
:100D0800401B642800F2CD802E4B1B6813F4807FB3
:100D1800F4D000222C4B1A70FFF790FB054607E031
:100D2800FFF78CFB401B41F28833984200F2BB80EE
:100D3800204B1B6F13F0020FF2D1227A224B1A704C
:100D4800A3688BB1FFF77AFB054607E0FFF776FB50
:100D5800401B41F28833984200F2A780154B1B6F65
:100D680013F0020FF2D010E0FFF768FB054607E02A
:100D7800FFF764FB401B41F28833984200F29780EA
:100D88000C4B1B6F13F0020FF2D1A369002B00F07C
:100D98009080084A926802F00C02082A00F08B80C2
:100DA800022B59D10022094B1A60FFF747FB054671
:100DB80013E000BF003802400238024000004742FA
:100DC800800E474200700040703802406000474281
:100DD800FFF734FB401B64286FD83B4B1B6813F0AC
:100DE800007FF5D1E269236A1A43636A47F6C07146
:100DF80091FAA1F1B1FA81F1C9B28B401A43A36A01
:100E08005B08591E4FF4403393FAA3F3B3FA83F304
:100E1800DBB201FA03F31A43E16A4FF0706393FA05
:100E2800A3F3B3FA83F3DBB201FA03F31A43264BB5
:100E38005A600122254B1A60FFF700FB044604E0C4
:100E4800FFF7FCFA001B642839D81F4B1B6813F006
:100E5800007FF5D0002035E000221C4B1A60FFF718
:100E6800EDFA044604E0FFF7E9FA001B642828D8E5
:100E7800154B1B6813F0007FF5D1002022E00120FC
:100E880020E003201EE003201CE003201AE00120DC
:100E980018E0032016E0032014E0032012E00320EA
:100EA80010E003200EE003200CE003200AE00320FA
:100EB80008E0002006E0012004E0032002E003200F
:100EC80000E0032003B030BD003802406000474214
:100ED80070B504460D46964B1B6803F00F038B4212
:100EE80078D2CAB2924B1A701B6803F00F038B4278
:100EF80040F0FE80036813F0020F06D08D4B99680E
:100F080021F0F00182680A439A60236813F0010F08
:100F180000F0D2806368012B05D1864A126812F46A
:100F2800003F0FD1E6E09A1E012A05D8814A1268CF
:100F380012F0007F06D1DFE07E4A126812F0020F3D
:100F480000F0DC807B4A916821F003010B43936039
:100F5800FFF774FA05466368012B0FD107E0FFF726
:100F68006DFA401B41F28833984200F2C980714BF8
:100F78009B6803F00C03042BF1D19DE0022B0FD1E9
:100F880007E0FFF75BFA401B41F28833984200F212
:100F9800B980684B9B6803F00C03082BF1D18BE0F8
:100FA800032B11D1634B9B68FFF748FA401B41F2B2
:100FB80088339842F6D9A7E0FFF740FA401B41F280
:100FC8008833984200F2A2805A4B9B6813F00C0FAA
:100FD800F2D171E0036813F0020F06D0554B9968FF
:100FE80021F0F00182680A439A60236813F0010F28
:100FF8005AD06368012B05D14E4A126812F4003F9B
:101008000ED185E09A1E012A05D84A4A126812F0C4
:10101800007F05D17EE0474A126812F0020F7BD0AC
:10102800444A916821F003010B439360FFF706FAE5
:1010380006466368012B0ED106E0FFF7FFF9801B17
:1010480041F28833984269D83A4B9B6803F00C0305
:10105800042BF2D128E0022B0ED106E0FFF7EEF9BF
:10106800801B41F2883398425AD8324B9B6803F070
:101078000C03082BF2D117E0032B10D12D4B9B68E2
:10108800FFF7DCF9801B41F288339842F6D949E032
:10109800FFF7D4F9801B41F28833984244D8254B96
:1010A8009B6813F00C0FF3D1EAB2214B1A701B683E
:1010B80003F00F03AB4239D1236813F0040F06D0B5
:1010C8001C4B996821F4E051E2680A439A6023684E
:1010D80013F0080F07D0174B9A6822F46042216971
:1010E80042EAC1029A600020FFF772F9002070BD41
:1010F800012070BD012070BD012070BD012070BDB0
:10110800032070BD032070BD032070BD032070BD97
:10111800012070BD012070BD012070BD032070BD8D
:10112800032070BD032070BD032070BD012070BD79
:10113800003C024000380240244B9B6803F00C033B
:10114800042B40D0082B01D0214870471F4B58680A
:1011580000F03F005B6813F4800F11D01D4BB3FB08
:10116800F0F01A4B5A6847F6C0731A4093FAA3F383
:10117800B3FA83F3DBB222FA03F303FB00F010E0C7
:10118800134BB3FBF0F0114B5A6847F6C0731A4083
:1011980093FAA3F3B3FA83F3DBB222FA03F303FB64
:1011A80000F00A4B5A6802F440324FF4403393FA85
:1011B800A3F3B3FA83F3DBB222FA03F301335B0040
:1011C800B0FBF3F070470348704700BF0038024097
:1011D8000024F40000127A0008B5FFF7ADFF094BB0
:1011E8009A6802F0F002F02393FAA3F3B3FA83F3B8
:1011F800DBB222FA03F3044AD35CD840034B1860ED
:1012080008BD00BF00380240D83F00080C0000208D
:1012180008B5FFF7E1FF084B9A6802F4E0524FF473
:10122800E05393FAA3F3B3FA83F3DBB222FA03F39E
:10123800024AD35CD84008BD00380240D83F0008B5
:1012480008B5FFF7C9FF084B9A6802F460424FF4EB
:10125800604393FAA3F3B3FA83F3DBB222FA03F3FE
:10126800024AD35CD84008BD00380240D83F000885
:101278002DE9F04104460368196921F44051C26818
:101288000A431A610268D36823F4164323F00C0357
:1012980080682169084361690843E16901430B4398
:1012A800D3602368596921F44071A2690A435A61DD
:1012B800E369B3F5004F74D1256803F1804303F562
:1012C80010439D4203D003F580639D4234D1FFF75C
:1012D800B7FF00EB800000EB800063685B00B0FBA9
:1012E800F3F7694EA6FB07277F093F01FFF7A8FF21
:1012F80000EB800000EB800063685B00B0FBF3F854
:10130800FFF79EFF00EB800000EB800063685B0046
:10131800B0FBF3F3A6FB03235B09642202FB1388EB
:101328004FEA081808F13208A6FB0836C6F3431638
:101338003743AF60BDE8F081FFF76AFF00EB80003C
:1013480000EB800063685B00B0FBF3F74E4EA6FB32
:1013580007277F093F01FFF75BFF00EB800000EBE9
:10136800800063685B00B0FBF3F8FFF751FF00EB08
:10137800800000EB800063685B00B0FBF3F3A6FB22
:1013880003235B09642202FB13884FEA081808F15B
:101398003208A6FB0836C6F343163743AF60BDE8EC
:1013A800F0812568394B9D4203D003F580639D4247
:1013B80034D1FFF745FF00EB800000EB8000636845
:1013C8009B00B0FBF3F7304EA6FB07277F093F01D0
:1013D800FFF736FF00EB800000EB800063689B009E
:1013E800B0FBF3F8FFF72CFF00EB800000EB800068
:1013F80063689B00B0FBF3F3A6FB03235B0964223D
:1014080002FB13884FEA081808F13208A6FB0836D1
:10141800C6F343163743AF60BDE8F081FFF7F8FE27
:1014280000EB800000EB800063689B00B0FBF3F7E3
:10143800154EA6FB07277F093F01FFF7E9FE00EBE2
:10144800800000EB800063689B00B0FBF3F8FFF7B7
:10145800DFFE00EB800000EB800063689B00B0FBC0
:10146800F3F0A6FB00304009642303FB10884FEA21
:10147800081808F13208A6FB0826C6F343163743B6
:10148800AF60BDE8F08100BF1F85EB51001001403F
:101498002DE9F04106460C4690461D46FEF7CEFF64
:1014A8000746B8F1000F26D053E0B5F1FF3F22D030
:1014B80025B1FEF7C3FFC01BA8421CD93368DA6800
:1014C80022F08002DA603368DA6822F02002DA60FB
:1014D8003368DA6822F48072DA6033685A6922F075
:1014E80001025A61012386F83930002386F8383022
:1014F8000320BDE8F08133681B682340A342D4D1A0
:101508000020BDE8F081B5F1FF3F22D025B1FEF7FC
:1015180095FFC01BA8421CD93368DA6822F0800204
:10152800DA603368DA6822F02002DA603368DA6851
:1015380022F48072DA6033685A6922F001025A6133
:10154800012386F83930002386F838300320BDE8B7
:10155800F08133681B682340A342D4D00020BDE843
:10156800F08100BF10B5044648B390F8393013F045
:10157800FF0F04D1002380F8383002F09FF80223CF
:1015880084F839302368DA6822F40052DA60204699
:10159800FFF76EFE23681A6922F490421A612368E5
:1015A8005A6922F02A025A612368DA6842F4005222
:1015B800DA600020E063012384F8393010BD01208F
:1015C80010BD00BF70B504460D461E4690F8393070
:1015D800DBB2012B01D0222B59D1002D59D0002A82
:1015E80059D094F83830012B57D0012384F838307B
:1015F8000023E36394F83930DBB2222B03D1322382
:1016080084F8393002E0122384F83930A284E28465
:1016180023E0013AE284A268B2F5805F12D1204645
:10162800802100223346FFF733FF002837D1236893
:101638002A88C2F308025A6023690BB902350CE004
:1016480001350AE02046802100223346FFF720FFBB
:1016580038BB23682A785A600135E28C002AD8D131
:10166800204640213346FFF713FF0346D8B994F8C4
:101678003920D2B2322A03D1222284F8392002E05A
:10168800012284F83920002284F838200CE0022353
:101698000AE0012308E0012306E0022304E0032313
:1016A80002E0032300E00323184670BDFEE700BFF5
:1016B80008B50D4B1B6813B90C4A0B4B1A600A4B43
:1016C8001B68033020F003001844094A904206D9E9
:1016D80002F020F80C2303604FF0FF3008BD024AE7
:1016E8001060184608BD00BF88000020483F002051
:1016F80000FC012001230360014B0B60704700BF11
:10170800040000200FB400B583B004AB53F8042BD9
:1017180001930848802102F049FB011E03DD0548BA
:1017280000F00AF80146084603B05DF804EB04B07F
:10173800704700BF900000204FF0FF30704700BF97
:1017480008B500F089F8044BD3F8882042F47002F9
:10175800C3F8882008BD00BF00ED00E008B500F020
:10176800A1F808BDF8B504460D4617461E4626489A
:10177800FFF7C8FF25482168FFF7C4FF24486168C0
:10178800FFF7C0FF2348A168FFF7BCFF2248E168C4
:10179800FFF7B8FF21482169FFF7B4FF20486169C6
:1017A800FFF7B0FF1F48A169FFF7ACFF1E48E169CA
:1017B800FFF7A8FF1D48FFF7A5FF1D482946FFF7BB
:1017C800A1FF1C4CE16A1C48FFF79CFF216B1B48DA
:1017D800FFF798FFE16B1A48FFF794FF15F0800FA9
:1017E80003D018483946FFF78DFF15F4004F03D092
:1017F80015483146FFF786FF1448FFF783FF144862
:101808000699FFF77FFFF8BDE83F0008F83F00089A
:101818000840000818400008284000083840000820
:101828004840000858400008684000087840000810
:101838008440000800ED00E094400008A44000083F
:10184800B4400008C4400008D4400008E440000840
:10185800EC400008FFF7FEBF0F4AD2F8883043F487
:101868007003C2F888300D4B196841F00101196006
:1018780000209860196821F0847121F48031196082
:1018880007495960196821F480211960D8604FF020
:1018980000639360704700BF00ED00E0003802402D
:1018A80010300024224B9B6803F00C03042B07D054
:1018B800082B09D0002B2DD11E4A1F4B1A602CE093
:1018C8001E4A1D4B1A6028E0194B59685B6803F0E3
:1018D8003F0311F4800F09D0184AB2FBF3F3144AFE
:1018E8005268C2F3881202FB03F208E0114AB2FB05
:1018F800F3F30F4A5268C2F3881202FB03F20C4B4F
:101908005B68C3F3014301335B00B2FBF3F20A4B9C
:101918001A6002E0074A084B1A60054B9B68C3F33C
:101928000313074AD15C044B1A68CA401A6070470F
:10193800003802400024F4000C00002040787D01AB
:1019480030410008842801D00330704700207047D8
:10195800EFF30580003018BF0120704708B501F08B
:1019680063F8002008BD00BF2DE9F04186B00D46A0
:10197800D0F8048007680669B0F90800FFF7E2FFAD
:10198800009005AB01930024029403944046394625
:10199800B2B22B4600F0AEFF012801D1059800E055
:1019A800002006B0BDE8F08108B508B90120FFE7BE
:1019B80001F08AF9002008BD70B50546466803366F
:1019C80026F00306142000F029F9044638B32B68E2
:1019D8008360C66000230361286800F01FF9606017
:1019E800C8B1286800FB06F000F018F9206028B993
:1019F80009E062680021D154013300E000232A681D
:101A08009A42F6D80BE0606800F05AF9204600F0D8
:101A180057F9002403E0204600F052F9002420463C
:101A280070BD00BF70B50446FFF792FF50B1EFF3E9
:101A380011854FF0500383F31188BFF36F8FBFF305
:101A48004F8F02E000F0FCF90025002211E0236925
:101A58001344994200D800236168C818C95C39B991
:101A6800012202702268E66803FB0626236104E06F
:101A78000132A1689142EAD80026FFF769FF10B148
:101A880085F3118801E000F0FDF9304670BD00BF14
:101A9800034698B1A1B102688A4213D8891AC0686E
:101AA800B1FBF0F200FB121272B9B1FBF0F19A68C7
:101AB8008A420BD95B6800205854704780207047D1
:101AC80080207047802070478020704780207047B2
:101AD80008B500680421002200F0CAFB08BD00BF59
:101AE80030B585B00546019100230393144602B929
:101AF8000124FFF72DFF98B1284601A903AA002366
:101B080000F0ACFC012815D1039BABB14FF080521B
:101B18000C4B1A60BFF34F8FBFF36F8F00200EE09E
:101B2800284601A92246002300F0D6FB012805D04B
:101B3800FF2004E0FF2002E0002000E0002005B0C4
:101B480030BD00BF04ED00E070B584B004460D461A
:101B58001646029141B904AB802243F8102D93E850
:101B6800070084E8070035E000230393B2F1FF3F44
:101B780002D00AB102B90126FFF7EAFEB0B1284641
:101B880001A903AA00F09CFD012802D110230093AB
:101B980001E000230093039BC3B14FF080520F4B29
:101BA8001A60BFF34F8FBFF36F8F0FE0284601A96C
:101BB8003246002300F0BEFC012802D11023009316
:101BC80004E00EB9002300E0402300939DE80700DD
:101BD80084E80700204604B070BD00BF04ED00E0B3
:101BE80008B501F007FA012801D000F091F908BD05
:101BF800074B23F00703074A136000205060064A8A
:101C080043F6F8315160106059601A60704700BFA0
:101C180020010020100100201C3D002070B5044662
:101C280000F03CFF224B1B6823B9FFF7E1FF0122BC
:101C38001F4B1A6034B1083414F0070F02D024F097
:101C480007040834621E43F6F6339A4228D8194925
:101C58000B6801E0194613465A68A24202D21A6874
:101C6800002AF7D1144A93421CD00E6808361A6825
:101C78000A605A68121B102A0CD9181942605C6055
:101C880045680C4900E011460A685468AC42FAD32A
:101C9800026008605968094B1A68521A1A6002E013
:101CA800002600E0002600F093FF304670BD00BF1C
:101CB800183D0020100100201C3D002010000020CD
:101CC80070B50546B8B1A0F1080600F0E7FE55F872
:101CD800044C094A00E01A4613685968A142FAD32D
:101CE80045F8083C166055F8041C044B1A680A4469
:101CF8001A6000F06DFF70BD100100201000002078
:101D080000F1080343604FF0FF328260C360036153
:101D180000230360704700BF00230361704700BFC2
:101D280043684B609A688A609A6851609960086154
:101D3800036801330360704730B40D68B5F1FF3FA5
:101D480001D1026907E000F1080200E01A46536871
:101D58001C68AC42FAD953684B6099608A6051603C
:101D6800086103680133036030BC70470369426847
:101D7800816891608268416851605A68824201D1E5
:101D880082685A600022026118680138186070473A
:101D98000B4B1B68B3F1FF3F08D04FF0500383F3A0
:101DA8001188BFF36F8FBFF34F8FFEE74FF05003DB
:101DB80083F31188BFF36F8FBFF34F8FFEE700BF28
:101DC8001400002006480068006880F3088862B69E
:101DD80061B6BFF34F8FBFF36F8F00DF00BF000006
:101DE80008ED00E0DFF80C00016841F470010160C3
:101DF8007047000088ED00E04FF0807340F8043C25
:101E080040F8081C054B40F80C3C40F8202C6FF0BB
:101E1800020340F8243C4438704700BF991D00086D
:101E2800064B19680868B0E8F04F80F30988BFF3DB
:101E38006F8F4FF0000080F311887047E83D002055
:101E48004FF0500383F31188BFF36F8FBFF34F8FA9
:101E58000A4A136801331360012B0DD1084B1B6824
:101E680013F0FF0F08D04FF0500383F31188BFF32E
:101E78006F8FBFF34F8FFEE7704700BF140000203D
:101E880004ED00E0094B1B6843B94FF0500383F39E
:101E98001188BFF36F8FBFF34F8FFEE7013B034AF3
:101EA80013600BB983F31188704700BF140000203A
:101EB800EFF30980BFF36F8F144B1A681EF0100FF1
:101EC80008BF20ED108A20E9F04F10604DF8043D5E
:101ED8004FF0500080F31188BFF34F8FBFF36F8F1F
:101EE80000F070FF4FF0000080F3118808BC1968FB
:101EF8000868B0E8F04F1EF0100F08BFB0EC108A69
:101F080080F30988BFF36F8F704700BFE83D00205A
:101F180008B5EFF311834FF0500282F31188BFF335
:101F28006F8FBFF34F8F00F0C1FD18B14FF0805293
:101F3800024B1A60002383F3118808BD04ED00E00A
:101F4800064B1A68064BA3FB02129209013A054B8D
:101F58001A600722043B1A60704700BF0C0000207B
:101F6800D34D621014E000E000B583B0314B1A681D
:101F7800314B9A4208D14FF0500383F31188BFF3D5
:101F88006F8FBFF34F8FFEE72A4B1A682B4B9A428D
:101F980008D14FF0500383F31188BFF36F8FBFF35D
:101FA8004F8FFEE7264B1A78D2B20192FF221A70A1
:101FB8001B78DBB28DF803309DF8032002F0500245
:101FC800204B1A700722204B1A6009E01E4B1A6832
:101FD800013A1A609DF803305B00DBB28DF80330DC
:101FE8009DF8033013F0800FF0D1174B1A681202D6
:101FF80002F4E0621A60019AD2B2114B1A7003F52A
:1020080012631A6842F470021A601A6842F0704249
:102018001A60FFF795FF00220C4B1A60FFF7E2FEEB
:102028000B4B1A6842F040421A60FFF7CBFEFFF7ED
:10203800AFFE00BF00ED00E071C20F4170C20F415A
:1020480000E400E0243D0020283D0020140000208A
:1020580034EF00E0EFF305830F2B0FD9104A9A5C99
:10206800D2B2104B1B789A4208D24FF0500383F338
:102078001188BFF36F8FBFF34F8FFEE70A4B1A68C3
:1020880002F4E062094B1B689A4208D94FF05003EA
:1020980083F31188BFF36F8FBFF34F8FFEE770474D
:1020A800F0E300E0243D00200CED00E0283D002096
:1020B80010B50446FFF7C4FEA26BE36B9A4201D148
:1020C800012400E00024FFF7DDFE204610BD00BF1C
:1020D80010B50446FFF7B4FEA36B0BB9012400E06A
:1020E8000024FFF7CFFE204610BD00BF38B50446D8
:1020F8001546026C3AB903685BBB406800F0DCFF28
:10210800002363602CE06DB9806801F009FBA268C8
:10211800236C1344A360626893421CD32368A360B2
:1021280000201DE0C06801F0FBFA226C5242E3680F
:102138001344E36021688B4202D263681A44E26068
:10214800022D0AD1A36B53B1A36B013BA3630020FB
:1021580006E0002004E0002002E0002000E000206B
:10216800A36B0133A36338BD10B50346026C5AB1A3
:10217800C4681444C4604068844201D31868D860B5
:102188000846D96801F0CCFA10BD00BF10B5044666
:10219800FFF756FE0BE0636A63B104F1240000F018
:1021A80087FE08B100F020FFA36C013BA364A36C79
:1021B800002BF0DC4FF0FF33A364FFF763FEFFF75B
:1021C8003FFE0BE0236963B104F1100000F070FEDC
:1021D80008B100F009FF636C013B6364636C002B7A
:1021E800F0DC4FF0FF336364FFF74CFE10BD00BF17
:1021F80038B50D46044640B94FF0500383F31188B3
:10220800BFF36F8FBFF34F8FFEE7FFF719FE236809
:10221800E06B226C02FB003161600021A163A360C6
:10222800013800FB0233E3604FF0FF336364A364BB
:1022380085B92369B3B104F1100000F039FE012813
:1022480010D14FF08052094B1A60BFF34F8FBFF384
:102258006F8F07E004F11000FFF752FD04F124002E
:10226800FFF74EFDFFF70EFE012038BD04ED00E03C
:10227800F8B50D461746064640B94FF0500383F3AC
:102288001188BFF36F8FBFF34F8FFEE719B101FBC2
:1022980000F0013000E000205430FFF7BFFC044696
:1022A80068B10DB9206002E000F154030360E663F1
:1022B800256420460121FFF79BFF84F8507044B93C
:1022C8004FF0500383F31188BFF36F8FBFF34F8F25
:1022D800FEE72046F8BD00BFF0B585B00E46019276
:1022E8001D46044640B94FF0500383F31188BFF3ED
:1022F8006F8FBFF34F8FFEE719B9036C1BB901232A
:1023080002E0012300E0002343B94FF0500383F3B8
:102318001188BFF36F8FBFF34F8FFEE7022D03D1F4
:10232800E36B012B02D102E0012300E0002343B953
:102338004FF0500383F31188BFF36F8FBFF34F8FB4
:10234800FEE700F057FE18B9019B1BB9012302E014
:10235800012300E0002343B94FF0500383F31188B1
:10236800BFF36F8FBFF34F8FFEE70027FFF768FDBE
:10237800A26BE36B9A4201D3022D22D1204631464B
:102388002A46FFF7B3FE636A73B104F1240000F034
:102398008FFD012811D14FF080522F4B1A60BFF3E7
:1023A8004F8FBFF36F8F08E038B14FF080522A4B40
:1023B8001A60BFF34F8FBFF36F8FFFF763FD0120E4
:1023C80048E0019B1BB9FFF75DFD002042E01FB903
:1023D80002A800F0B3FD0127FFF754FD00F05EFBF3
:1023E800FFF72EFD636CB3F1FF3F01D10023636457
:1023F800A36CB3F1FF3F01D10023A364FFF742FDB3
:1024080002A801A900F0B0FDF0B92046FFF750FE80
:10241800A0B104F11000019900F012FD2046FFF769
:10242800B5FE00F0D5FB0028A0D14FF080520A4B32
:102438001A60BFF34F8FBFF36F8F97E72046FFF700
:10244800A5FE00F0C5FB91E72046FFF79FFE00F0D0
:10245800BFFB002005B0F0BD04ED00E02DE9F04120
:102468000F4616461D46044640B94FF0500383F305
:102478001188BFF36F8FBFF34F8FFEE719B9036C55
:102488001BB9012302E0012300E0002343B94FF008
:10249800500383F31188BFF36F8FBFF34F8FFEE7AD
:1024A800022D03D1E36B012B02D102E0012300E0EE
:1024B800002343B94FF0500383F31188BFF36F8FA4
:1024C800BFF34F8FFEE7FFF7C5FDEFF311884FF01D
:1024D800500383F31188BFF36F8FBFF34F8FA26B45
:1024E800E36B9A4201D3022D18D1204639462A4679
:1024F800FFF7FCFDA36CB3F1FF3F0AD1636A7BB120
:1025080004F1240000F0D4FC60B16EB10120306009
:102518000BE0A36C0133A364012006E0002004E073
:10252800012002E0012000E0012088F31188BDE8C5
:10253800F08100BFF0B585B00D4601921F460446F4
:1025480040B94FF0500383F31188BFF36F8FBFF387
:102558004F8FFEE719B9036C1BB9012202E0012273
:1025680000E0002242B94FF0500383F31188BFF313
:102578006F8FBFF34F8FFEE700F03CFD18B9019B4A
:102588001BB9012202E0012200E0002242B94FF00B
:10259800500383F31188BFF36F8FBFF34F8FFEE7AC
:1025A8000026FFF74DFCA36B002B32D0E6682046CF
:1025B8002946FFF7D9FDC7B9A36B013BA36323687D
:1025C80013B900F0D3FD60602369F3B104F1100082
:1025D80000F06EFC012818D14FF08052374B1A607A
:1025E800BFF34F8FBFF36F8F0FE0E660636A63B18D
:1025F80004F1240000F05CFC38B14FF080522F4BFE
:102608001A60BFF34F8FBFF36F8FFFF73BFC0120BA
:1026180051E0019B1BB9FFF735FC00204BE01EB9C8
:1026280002A800F08BFC0126FFF72CFC00F036FA1C
:10263800FFF706FC636CB3F1FF3F01D1002363642D
:10264800A36CB3F1FF3F01D10023A364FFF71AFC89
:1026580002A801A900F088FC38BB2046FFF738FD26
:10266800E8B1236833B9FFF7EBFB606800F0D2FCF0
:10267800FFF708FC04F12400019900F0E1FB204673
:10268800FFF784FD00F0A4FA00288AD14FF08052A9
:102698000A4B1A60BFF34F8FBFF36F8F81E7204655
:1026A800FFF774FD00F094FA7BE72046FFF76EFD14
:1026B80000F08EFA002005B0F0BD00BF04ED00E088
:1026C800F8B50E461546044640B94FF0500383F35B
:1026D8001188BFF36F8FBFF34F8FFEE719B9036CF3
:1026E8001BB9012302E0012300E0002343B94FF0A6
:1026F800500383F31188BFF36F8FBFF34F8FFEE74B
:10270800FFF7A8FCEFF311874FF0500383F311880C
:10271800BFF36F8FBFF34F8FA36BD3B12046314602
:10272800FFF722FDA36B013BA363636CB3F1FF3F8B
:102738000AD123697BB104F1100000F0B9FB60B144
:102748006DB1012028600BE0636C013363640120E4
:1027580006E0002004E0012002E0012000E0012062
:1027680087F31188F8BD00BF0A4B1B681B680BB9BB
:10277800012300E0002323B14FF0FF32064B1A601B
:102788007047044B1B68DB68DB685A68024B1A60A9
:10279800704700BF2C3D0020083E002010B50446BD
:1027A800006BFFF78DFA2046FFF78AFA10BD00BFCD
:1027B80070B506460D4619B98000FFF72FFA054691
:1027C80055B15C20FFF72AFA044608B1056304E016
:1027D8002846FFF775FA00E0002424B1206BA521F4
:1027E800B20000F0A6FF204670BD00BF70B50446D9
:1027F8001646002306E0CD5CE01880F83450C85C2B
:1028080010B101330F2BF6D9002384F84330062E7C
:1028180000D90626E662E66400252565201DFFF737
:102828007BFA04F11800FFF777FA2461C6F107066E
:10283800A6616462656584F8585070BD38B5002497
:1028480006E014200E4B00FB0430FFF759FA013460
:10285800062CF6D90B4D2846FFF752FA0A4C2046AB
:10286800FFF74EFA0948FFF74BFA0948FFF748FA0D
:102878000848FFF745FA084B1D60084B1C6038BD37
:10288800543D0020103E0020243E0020EC3D002056
:10289800383D0020383E00202C3D00204C3D0020D3
:1028A80010B504460E4B1B6858600E4B1B689842C7
:1028B80007D20D4B18680A4B19680431FFF73CFA28
:1028C80010BD0A4B1868064B19680431FFF734FA33
:1028D800074B1B689C4201D2054B1C6010BD00BF12
:1028E800E83D0020043E00204C3D00202C3D002007
:1028F800083E00202DE9F04F83B08B4616469946D6
:102908000C9DDDF83480824640B94FF0500383F3C4
:102918001188BFF36F8FBFF34F8FFEE7062D08D9DD
:102928004FF0500383F31188BFF36F8FBFF34F8FBE
:10293800FEE710460E99FFF73BFF044600284DD0EE
:10294800036B06F18047013F03EB870727F0070772
:10295800009659462A460F9BFFF748FF38465146CE
:102968004A46FFF749FA2060B8F1000F01D0C8F8CD
:102978000040FFF765FA254B1A6801321A60244BAC
:102988001B6843B9224B1C60204B1B68012B0CD1E0
:10299800FFF754FF09E01F4B1B6833B91C4B1B683A
:1029A800DB6AAB4201D81A4B1C601B4A136801331F
:1029B80013606364E36A012606FA03F0174A116894
:1029C8000143116003EB83039B0015481844211D44
:1029D800FFF7A6F9FFF756FA304601E04FF0FF304F
:1029E80001280FD10B4B1B6863B1094B1B68DB6ACD
:1029F800AB4207D24FF080520A4B1A60BFF34F8F99
:102A0800BFF36F8F03B0BDE8F08F00BFE43D002037
:102A1800E83D0020303D00200C3E00204C3E0020C8
:102A2800543D002004ED00E000B585B0002300937C
:102A3800019302930393144814498022FFF75AFF25
:102A4800012814D14FF0500383F31188BFF36F8F1F
:102A5800BFF34F8F4FF0FF320D4B1A6001220D4B21
:102A68001A6000220C4B1A60FFF77EFA09E040B9A1
:102A78004FF0500383F31188BFF36F8FBFF34F8F6D
:102A8800FEE705B05DF804FBA52D000840410008ED
:102A9800083E0020303D0020043E0020024B1A680A
:102AA80001321A60704700BFE03D0020F8B53D4B89
:102AB8001B68002B69D13C4B1A6801321A601E68EA
:102AC800C6B93A4B1B681B6843B14FF0500383F3F8
:102AD8001188BFF36F8FBFF34F8FFEE7334A11683A
:102AE800334B186810601960324B1A6801321A604B
:102AF800FFF73AFE304B1B689E4203D2002439E0B0
:102B0800012400E00024294B1B681B680BB9012332
:102B180000E0002323B14FF0FF32274B1A6029E071
:102B2800224B1B68DB68DD686B689E4202D2224A32
:102B380013601FE02F1D3846FFF718F9AB6A1BB169
:102B480005F11800FFF712F9EB6A012098401B4ABB
:102B580011680143116003EB83039B001848184474
:102B68003946FFF7DDF8EA6A164B1B68DB6A9A42BA
:102B7800C6D2C8E7134B1B68DB6A03EB83039B00D1
:102B88000F4AD358012B06D806E00F4B1A680132BA
:102B98001A60002400E001240C4B1B6803B10124D7
:102BA8002046F8BDE03D0020043E00202C3D0020DA
:102BB8004C3D0020003E0020083E00204C3E0020F6
:102BC800543D0020E83D0020503D0020503E0020AC
:102BD80038B5344B1B6843B94FF0500383F3118861
:102BE800BFF36F8FBFF34F8FFEE7FFF729F92D4B28
:102BF8001A68013A1A601B68002B4BD12A4B1B68D4
:102C080023BB002449E0294BDB68DC6804F1180089
:102C1800FFF7ACF8251D2846FFF7A8F8E36A01205E
:102C28009840234A11680143116003EB83039B001A
:102C3800204818442946FFF773F8E26A1E4B1B68C0
:102C4800DB6A9A4202D301221C4B1A60174B1B689D
:102C5800002BD8D11A4B1B6853B90DE0FFF726FF9C
:102C680010B10122154B1A60154B1A68013A1A6007
:102C7800134B1B68002BF1D1104B1B68012B0BD198
:102C88004FF080520F4B1A60BFF34F8FBFF36F8F17
:102C9800012402E0002400E00024FFF7F3F82046B6
:102CA80038BD00BFE03D0020E43D0020EC3D0020A1
:102CB8004C3E0020543D0020E83D0020503E0020BE
:102CC800503D002004ED00E010B5044630B3194B28
:102CD8001B6843B14FF0500383F31188BFF36F8F24
:102CE800BFF34F8FFEE7FFF7D9FE134B1B681C4459
:102CF800124B18680430FFF739F848B90F4B1B68B6
:102D0800DB6A012199400E4B1A6822EA01021A6017
:102D18002046FFF7C5FDFFF75BFF00E0002038B94C
:102D28004FF08052074B1A60BFF34F8FBFF36F8F7E
:102D380010BD00BFE03D0020043E0020E83D00201B
:102D48004C3E002004ED00E010B51BE0FFF7A6FEA6
:102D58000F4B1C68FFF73CFFA4B1FFF771F80C4B51
:102D6800DB68DC68201DFFF701F80A4B1A68013A96
:102D78001A60094B1A68013A1A60FFF783F820466F
:102D8800FFF70CFD044B1B68002BDFD110BD00BF03
:102D9800383D0020E43D0020343D002008B5FFF711
:102DA800D3FF064B1B68012BF9D94FF08052044B17
:102DB8001A60BFF34F8FBFF36F8FF0E7543D0020C9
:102DC80004ED00E0194B1B681BB10122184B1A6077
:102DD80070470022164B1A60164B1B68B3FA83F330
:102DE800DBB2C3F11F0303EB8302920012498A5836
:102DF80042B94FF0500383F31188BFF36F8FBFF3CD
:102E08004F8FFEE703EB83039B000B4A13445A687A
:102E180052685A6003F108018A4201D152685A6027
:102E28005B68DA68054B1A60704700BFE03D002018
:102E3800503E00204C3E0020543D0020E83D00203C
:102E480038B50C4640B94FF0500383F31188BFF3EF
:102E58006F8FBFF34F8FFEE7114D29681831FEF7CA
:102E68006BFF28680430FEF781FF40B92B68DB6AE6
:102E7800012199400B4B1A6822EA01021A60B4F149
:102E8800FF3F06D1064B196807480431FEF748FF93
:102E980038BD064B18682044FFF702FD38BD00BF57
:102EA800E83D00204C3E0020383E0020043E002033
:102EB80038B5C368DC6844B94FF0500383F3118810
:102EC800BFF36F8FBFF34F8FFEE704F11805284655
:102ED800FEF74CFF134B1B689BB9251D2846FEF7D0
:102EE80045FFE36A012098400F4A116801431160C9
:102EF80003EB83039B000D4818442946FEF710FF97
:102F080003E00B482946FEF70BFFE26A094B1B68F2
:102F1800DB6A9A4203D90120074B186038BD0020AC
:102F280038BD00BFE03D00204C3E0020543D00204D
:102F3800EC3D0020E83D0020503E002040B94FF015
:102F4800500383F31188BFF36F8FBFF34F8FFEE7F2
:102F5800034A12680260034A12684260704700BF61
:102F6800003E0020043E002038B50D46044640B916
:102F78004FF0500383F31188BFF36F8FBFF34F8F68
:102F8800FEE741B94FF0500383F31188BFF36F8F09
:102F9800BFF34F8FFEE7FEF753FF114B1A682B68FC
:102FA800B3F1FF3F13D021680E480068814202D078
:102FB800616891420DD96168501A83420BD98A1A07
:102FC80013442B602046FFF7B9FF002404E00024D7
:102FD80002E0012400E00124FEF754FF204638BD3A
:102FE800043E0020003E00200122014B1A60704779
:102FF800503E0020054B1B6823B1054B1B681BB9CD
:10300800022070470120704700207047303D0020A3
:10301800E03D002038B50446002846D0C36A234A5C
:103028001268D26A934240D28369002B05DB1F4B9A
:103038001B68DB6AC3F1070383616269E36A03EB18
:1030480083039B001A490B449A4201D1012300E0F3
:10305800002333B3251D2846FEF788FE70B9E26ABF
:1030680002EB82039B001249CB583BB9012303FAB8
:1030780002F2104B196821EA02021A600B4B1B6816
:10308800DB6AE362012199400A4A10680143116032
:1030980003EB83039B00064818442946FEF740FECD
:1030A80038BD024B1B68DB6AE36238BDE83D00208F
:1030B800543D00204C3E002038B50446002849D035
:1030C800274B1B68984208D04FF0500383F31188B0
:1030D800BFF36F8FBFF34F8FFEE7036D43B94FF018
:1030E800500383F31188BFF36F8FBFF34F8FFEE751
:1030F800013B0365C16AC26C91422DD0002B2DD1D2
:10310800051D2846FEF732FE70B9E36A03EB830219
:10311800920014498A583AB9012202FA03F3124A72
:10312800116821EA03031360E36CE362C3F1070249
:10313800A261012404FA03F00B4A116801431160EB
:1031480003EB83039B00074818442946FEF7E8FD74
:10315800204638BD002038BD002038BD002038BDCD
:10316800E83D0020543D00204C3E0020054B1B68E4
:1031780023B1044B1B681A6D01321A65014B18689C
:10318800704700BFE83D002030B58BB0244B1A6B68
:1031980042F004021A631A6B02F004020192019AC7
:1031A8001A6B42F080021A631A6B02F080020292D4
:1031B800029A1A6B42F001021A631A6B02F00102BA
:1031C8000392039A1A6B42F002021A631B6B03F014
:1031D80002030493049B4FF400530593114B069389
:1031E80000240794104805A9FDF718FB0C23059344
:1031F8000223069307940894072309930B4D284646
:1032080005A9FDF70BFB602305930123069307949B
:103218000894284605A9FDF701FB0BB030BD00BF97
:10322800003802400000121000080240000002406E
:1032380008B50848084B03604FF4E13343600023A6
:103248008360C36003610C2242618361C361FEF73E
:1032580089F908BD003F00200044004070B584B0E3
:103268000E4C0F4B23604FF4803363600025A5603C
:103278002561A56165622563E56001262662E56131
:1032880066612046FDF780F9009501960295204673
:103298006946FDF797F904B070BD00BFA43E002051
:1032A8000020014008B50948094B0360094B4360F9
:1032B80000238360C3604FF48042026143618361ED
:1032C800C3610362FDF78EFB08BD00BF683E0020A6
:1032D80000540040A086010070B54FF47A7664254A
:1032E8000A240D482021FDF779FB01340135013608
:1032F8000A4B1868FEF796FB014604604560866035
:10330800074B18684FF0FF32FEF7EAFB41F28830AE
:10331800FEF74AFBE5E700BF00000240EC3E002054
:10332800F43E002010B542F210740134084B1868BE
:10333800FEF778FB01460460064B18684FF0FF3231
:10334800FEF7CEFB4FF47A70FEF72EFBEDE700BFD9
:10335800643E0020E83E002010B516484FF40051A6
:10336800FDF734FB90B9144B1B787BB9134C2046FE
:103378004021FDF733FB4620FEF716FB204640218F
:10338800FDF72CFB01220C4B1A70E6E709484FF4B5
:103398000051FDF71BFB38B90022074B1A7040F6A5
:1033A800B830FEF701FBD8E74FF4FA70FEF7FCFAE5
:1033B800D3E700BF00080240543E0020000002404E
:1033C800F0B593B0002304930593069307930893ED
:1033D80009930A93ADF82C300FA81E4B19680022E8
:1033E800FEF7B2FB0CA81C4A11680022FEF7ACFBE2
:1033F8000F9A102A07D110990C684D688E68174BE0
:103408001868FEF745FB0C9A102A05D10D990F682C
:10341800134B1868FEF73CFB04A830211E2200F06D
:1034280088F900950196029704A81E210D4A2346A3
:1034380000F088F904A800F0B7F982B20A4804A994
:103448004FF6FF73FEF7BEF84FF4FA70FEF7ACFACA
:10345800C2E700BFF43E0020E83E0020EC3E00201A
:10346800643E0020C0410008003F002070B594B0C1
:10347800204B1A6C42F080521A641B6C03F0805384
:103488000193019B1C4B1A6822F4404242F400420B
:103498001A601B6803F440430293029B02240894B9
:1034A80001230B9310230C930E9400260F96109370
:1034B8004FF4A873119304251295139508A8FDF7E6
:1034C8001DFB05230393049405964FF4805306933C
:1034D800079603A82146FDF7FBFCFDF77DFE074B89
:1034E800A3FB00208009FDF773F92846FDF786F94C
:1034F80014B070BD0038024000700040D34D621017
:1035080070B59EB0FCF778FFFFF7B0FFFFF73CFE01
:10351800FFF78EFEFFF7A2FEFFF7C4FE324C19AD8F
:1035280026460FCE0FC533682B6019A80021FEF779
:103538001BFA2E4B186014AD04F114060FCE0FC5FC
:1035480033682B6014A80021FEF70EFA284B186088
:103558000FAD04F128060FCE0FC533682B600FA8F6
:103568000021FEF701FA234B18600AAD04F13C066E
:103578000FCE0FC533682B600AA80021FEF7F4F9B7
:103588001D4B186007AB04F1500207CA83E8070017
:103598001846FEF711FA194B186004AB04F15C02E7
:1035A80007CA83E807001846FEF706FA144B1860A6
:1035B80002AB04F1680292E8030083E803001846AE
:1035C8000021FEF785FA0F4B1860703494E8030069
:1035D8008DE8030068460021FEF77AFA0A4B186066
:1035E800FEF7BCF9FEE700BF48410008F83E00209E
:1035F800403F0020FC3E0020F03E0020EC3E002032
:10360800643E0020F43E0020E83E002008B5032078
:10361800FDF79AF84FF0FF3000210A46FDF7A6F8AB
:1036280008BD00BF00B587B002680D4B9A4214D19F
:1036380003F58C335A6C42F480725A645B6C03F461
:1036480080730093009B01230193032302930023BB
:103658000393044801A9FDF7E1F807B05DF804FBFE
:10366800002001400000024000B587B00268104BFE
:103678009A4219D14FF44073019312230293012304
:10368800039303230493042305930A480DEB0301D2
:10369800FDF7C4F8084B1A6C42F400121A641B6C4C
:1036A80003F400130093009B07B05DF804FB00BF10
:1036B80000540040000402400038024000B587B0C2
:1036C80002680F4B9A4218D103F5FA331A6C42F488
:1036D80000321A641B6C03F400330093009B0C2324
:1036E80001930223029301230393032304930723E3
:1036F8000593044801A9FDF791F807B05DF804FBAC
:10370800004400400000024008B5FCF78FFEFEF7B9
:1037180067FA08BD014B1868704700BF78000020A1
:1037280010B50023934203D0CC5CC4540133F9E7AD
:1037380010BD02440346934202D003F8011BFAE786
:10374800704700000CB430B5164B0C1E9DB01D68B8
:1037580004DA8B232B604FF0FF301EE04FF4027326
:10376800ADF8143014BF04F1FF33234604930793D4
:103778004FF6FF7302900690ADF81630284621AB3D
:1037880002A9209A019300F073F8431CBCBF8B2355
:103798002B6014B1029B00221A701DB0BDE83040A6
:1037A80002B0704778000020034613F8012B002A66
:1037B800FBD1181A013870472DE9F0478D68AB42E4
:1037C80081460C4692461F4643D38B8913F4906F6B
:1037D8003DD026680969C1EB06086669022206EB36
:1037E800460696FBF2F608F101023A44964238BFC3
:1037F80016465B050FD5314600F056FB054698B1D5
:1038080021694246FFF78CFFA38923F4906343F0B4
:103818008003A38113E0324600F09AFB054670B995
:103828004846216900F0FCFA0C23C9F80030A38946
:1038380043F04003A3814FF0FF30BDE8F0872561D6
:1038480066614544C8EB06062560A6603D46AF4262
:1038580000D23D462A462068514600F0C6FAA368C1
:103868005B1BA36023681D4425600020BDE8F0872A
:103878002DE9F0439DB0074603938B891C060D463E
:1038880016460CD50B6953B9402100F00DFB286092
:10389800286110B90C233B60C8E040236B6100230A
:1038A800099320238DF8293030238DF82A303346A8
:1038B8001C4613F8012B1AB9B4EB06090FD002E025
:1038C800252AF5D1F8E73846294632464B46FFF710
:1038D80073FF013000F0A580099B4B4409932378BE
:1038E800002B00F09E8000234FF0FF3204930793D3
:1038F800059206938DF853301A9304F101094C464A
:103908004D4E21783046052200F060FA09F1010990
:10391800049B28B1861B0120B04003430493EEE7C3
:10392800D90644BF20228DF853201A0744BF2B2202
:103938008DF8532022782A2A02D0079B21460EE0D0
:10394800039A111D12680391002A01DB079204E013
:10395800524243F002030792049301340AE00C46F2
:1039680001312278303A092A03D80A2000FB0323C0
:10397800F5E7079323782E2B1AD163782A2B0AD1DF
:10398800039B1A1D1B680392002B04F10204B8BFA5
:103998004FF0FF330BE0611C00230C460131227805
:1039A800303A092A03D80A2000FB0323F5E70593D8
:1039B800224E21783046032200F008FA30B1861BE7
:1039C800049B4020B04003430493013421781C48F1
:1039D8008DF828100622661C00F0F8F988B1194BFA
:1039E80033B9039B073323F007030833039314E029
:1039F80003AB0093384604A92A46134BAFF3008063
:103A080007E003AB0093384604A92A460E4B00F0A2
:103A18008FF8B0F1FF3F804603D0099B43440993D8
:103A280045E7AB895B0601D4099801E04FF0FF3008
:103A38001DB0BDE8F08300BFF2410008F84100085E
:103A4800FC41000800000000C13700082DE9F843D8
:103A580015461F468A680B69DDF820809A42A8BF80
:103A680013462B6091F8432006460C460AB10133F1
:103A78002B602368990602D52B6802332B602368D4
:103A880013F006091DD094F843302268003318BF9C
:103A9800012392061FD5E1185A1C302081F84300F3
:103AA800224494F8451082F84310023313E030465C
:103AB800394604F119020123C047013007D009F142
:103AC8000109E2682B68D31A9945F0DBDBE74FF070
:103AD800FF30BDE8F8833046394604F14302C04759
:103AE8000130F4D023682A68E16803F00603042B48
:103AF80008BFC2EB01052369A2680CBF25EAE5757A
:103B080000259A42C4BFC3EB0203ED184FF0000929
:103B1800A9450ADA3046394604F11A020123C0479A
:103B28000130D4D009F10109F2E70020BDE8F8839B
:103B38002DE9FF470E7E0C9D6E2E80460C46914661
:103B48009A4601F1430000F0A58011D8632E22D0D7
:103B580009D8002E00F0AF80582E40F0BF8081F8C1
:103B680045607B4A4FE0642E1ED0692E1CD0B5E01C
:103B7800732E00F0A48009D86F2E2BD0702E40F041
:103B8800AD800B6843F020030B6038E0752E21D020
:103B9800782E34D0A2E02B681A1D1B682A6001F128
:103BA800420781F842309DE022682B6812F0800FAE
:103BB80003D01A1D2A601D6805E05106F9D51A1DA3
:103BC8002A60B3F90050002D39DA2D236D4284F8AC
:103BD800433034E022682B6812F0800F03D01A1D9E
:103BE8002A601D6804E05206F9D51A1D2A601D884E
:103BF800237E574A6F2B14BF0A2308231BE0782320
:103C0800544A84F845302368296813F0800F01F17D
:103C180004062E6001D00D6802E05F06FBD50D8812
:103C2800DE0744BF43F0200323601DB9236823F057
:103C3800200323601023002184F8431001E0444A44
:103C48000A236668A660002E03DB216821F00401C0
:103C5800216005B96EB104F14201B5FBF3F603FB2F
:103C680016550F46555D01F801593546002EF4D119
:103C780000E00746082B0AD12368DD0707D56268EC
:103C880023699A4203DC302307F8013C013FC01B3B
:103C980020612CE009682B68626911F0800F04D05C
:103CA800191D29601B681A6005E04906F8D5191D19
:103CB80029601B681A8000232361074617E02B68D8
:103CC8001A1D2A601F683846FFF76EFD6368206179
:103CD800984288BF23612369636005E004F14207C5
:103CE80084F8426001232361002384F84330CDF82F
:103CF80000A04046214603AA4B46FFF7A7FE013025
:103D080002D14FF0FF301FE0404649463A4623694A
:103D1800D0470130F5D023689B0705D4E068039BA2
:103D28009842B8BF18460FE00025E268039BD31AF3
:103D38009D42F3DA4046494604F119020123D0476F
:103D48000130DED00135F0E704B0BDE8F08700BFF0
:103D5800034200081442000830B5141E9BB0054603
:103D680004DA8B2303604FF0FF301CE04FF402723B
:103D780000910491ADF80C2014BF04F1FF312146E5
:103D88004FF6FF7202910591ADF80E2069461A466A
:103D98001E9BFFF76DFD431CBCBF8B232B6014B12A
:103DA800009B00221A701BB030BD000073B5009351
:103DB800054B06460D461446186831462A462346E2
:103DC800FFF7CAFF02B070BD7800002010B5C9B275
:103DD80002449042034606D01C788C4200F1010050
:103DE800F7D1184610BD002010BD814270B501D32F
:103DF80000230EE08C18A042FAD28518134613F15E
:103E0800FF3305D3514266182944F65CCE54F6E7D1
:103E180070BD934203D0CC5CC4540133F9E770BD44
:103E280030B500293CD051F8042C0B1F1D49002A3D
:103E3800B8BF9B180A680C4612B95A600B6030BDAF
:103E480093420DD219685818904203D15A58114418
:103E5800426819605A60236030BD994203D80A4607
:103E680051680029F9D1146815199D420AD11B68B7
:103E78002344D0188842136012D1086803441360A1
:103E88004B680CE002D90C23036030BD18681C187D
:103E98008C4203D10C68496820441860596053600B
:103EA80030BD00BF5C3E002070B5CD1C25F0030579
:103EB80008350C2D38BF0C25002D06463FDB8D42FA
:103EC8003DD3214B1C6818462146A1B10B685B1BEA
:103ED8000ED40B2B03D90B60CC18CD501FE08C42AD
:103EE80002D1626802601AE04B6863600C4616E013
:103EF8000C464968E9E7154C23681BB9304600F0C1
:103F08004DF820602946304600F048F8431C014629
:103F180015D0C41C24F0030484420AD1256004F19E
:103F28000B00231D20F00700C31A0BD05A42E250A1
:103F380070BD3046611A00F031F80130EED10C2323
:103F48003360002070BD00BF5C3E0020583E00205A
:103F5800F8B5064614460D4621B91146BDE8F840A5
:103F6800FFF7A2BF1AB9FFF75BFF2046F8BD00F0C4
:103F780025F8A0420ED230462146FFF795FF0746A6
:103F880050B129462246FFF7CBFB30462946FFF7BA
:103F980047FF01E02846F8BD3846F8BD38B5064C5D
:103FA8000023054608462360FDF782FB431C02D127
:103FB800236803B12B6038BD603E002051F8040C23
:103FC800002802DA04390B581844043870470000F6
:103FD80000000000010203040102030406070809A7
:103FE800537461636B206672616D653A0A00000064
:103FF800205230203D2020253038580A000000008B
:10400800205231203D2020253038580A0000000079
:10401800205232203D2020253038580A0000000068
:10402800205233203D2020253038580A0000000057
:1040380020523132203D20253038580A0000000037
:10404800204C52203D2020253038580A000000001E
:10405800205043203D2020253038580A0000000019
:1040680020505352203D20253038580A00000000C7
:104078004653522F4641523A0A0000002043465305
:1040880052203D2020253038580A00002048465349
:1040980052203D2020253038580A0000204446533D
:1040A80052203D2020253038580A00002041465330
:1040B80052203D2020253038580A0000204D4D461A
:1040C8004152203D20253038580A00002042464100
:1040D80052203D2020253038580A00004D6973636E
:1040E8000A000000204C522F4558435F5245545552
:1040F800524E3D20253038580A0000005B48617256
:10410800644661756C745D0A000000005B4275735B
:104118004661756C745D0A005B557361676546613D
:10412800756C745D0A0000000000000000000000CB
:10413800010203040607080949444C450000000031
:10414800E8410008E132000800000000000000001B
:1041580080000000E0410008613300080000000012
:104168000000000080000000D8410008C9330008A2
:10417800000000000000000080000000D04100089E
:104188002D3300080000000000000000800000003F
:1041980010000000100000000000000010000000E7
:1041A80004000000000000001000000010000000E3
:1041B800100000000400000025642C25642C2564F0
:1041C8002C25640A0D0000007461736B3400000034
:1041D8007461736B330000007461736B320000000C
:1041E8007461736B310000004300232D302B2000D5
:1041F800686C4C0065666745464700303132333499
:104208003536373839414243444546003031323338
:0D42180034353637383961626364656600FD
:10422800785634128C000020000000000024F400AE
:10423800F83B0000AAAAAAAA00000000000000009B
:104248000000000000000000000000000000000066
:104258000000000000000000F0410008000000001D
:104268000000000000000000000000000000000046
:104278000000000000000000000000000000000036
:104288000000000000000000000000000000000026
:10429800000000000000000018000020325476984A
:040000050800019955
:00000001FF
